:020000040800F2
:10000000F00800204501000887130008611200086D
:1000100085130008D1010008311700080000000016
:10002000000000000000000000000000AD13000808
:100030002102000800000000A9130008B113000805
:100040005F0100085F0100085F0100085F01000810
:10005000AD020008AB1300085F0100085F01000853
:100060005F0100085F0100085F0100085F010008F0
:100070005F0100085F0100085F0100085F010008E0
:100080005F0100085F0100085F0100085F010008D0
:100090005F0100085F0100085F0100085F010008C0
:1000A0005F0100085F0100085F0100085F010008B0
:1000B0005F0100085F0100085F0100085F010008A0
:1000C0005F0100085F0100085F0100085F01000890
:1000D0005F01000819170008251700085F010008D4
:1000E0005F0100085F0100085F0100085F01000870
:1000F0005F0100085F0100085F0100085F01000860
:100100005F0100085F0100085F0100085F0100084F
:100110005F0100085F0100085F0100085F0100083F
:100120005F0100085F0100085F0100085F0100082F
:10013000DFF80CD000F03AF80048004765170008D7
:10014000F00800200648804706480047FEE7FEE723
:10015000FEE7FEE7FEE7FEE7FEE7FEE7FEE7FEE777
:100160003914000831010008202A04DB203A21FA62
:1001700002F00021704721FA02F3D040C2F12002C0
:10018000914008431946704740EA01039B0703D09A
:1001900009E008C9121F08C0042AFAD203E011F8C6
:1001A000013B00F8013B521EF9D27047064C074D47
:1001B00006E0E06840F0010394E807009847103437
:1001C000AC42F6D3FFF7B8FF201900084019000829
:1001D000FEE7000010B50F490F4C08682060486822
:1001E00060608868A0602088A0F5AA42553A04D1D2
:1001F0006089A0F52A42AA3A0BD00C22074800F0E9
:1002000011F80648001F4168216081686160C0687C
:10021000A06010BD00800008AC0000200800002095
:10022000704700002DE9F0410D46A1F100618046C4
:10023000880AC1F309074FF0006101EB80211446E1
:1002400086B00E464FF480621748FFF79DFF00F01E
:1002500077FA0020019000900121CDE90361694601
:1002600001A800F047F900200F4E05E018F8001033
:10027000C219401CB15480B2A042F7D300244FF4FD
:1002800000773019315D4078002341EA00222919B6
:10029000012000F015FAA41CA4B2BC42F1D300F076
:1002A00003FA06B0BDE8F081D000002000F078B974
:1002B00006490020C8610648016941F00401016156
:1002C000016941F04001016170470000D004002045
:1002D00000200240064A0021D16106490A6942F025
:1002E00002020A614861086940F0400008617047F5
:1002F000D004002000200240044B0022DA61044AAE
:10030000136943F00103136101807047D00400209A
:100310000020024014480022C168CB06134904D5CE
:10032000CA6942F00202CA611022C3685B0705D5A0
:10033000CB6943F00103CB6142F00402C369DB07E0
:1003400007D0CB6943F00403CB61C16921F00101FF
:10035000C161A2F58071013901D0C2607047C169E5
:1003600021F00101C161704700200240D00400204B
:1003700070B5054600F0FAFA0646114C09E0681C13
:1003800007D025B100F0F2FA801BA84201D9032062
:1003900070BDE068C007F2D1E068800601D520207A
:1003A000E060E068C00605D4E069C00702D1E068FB
:1003B000400703D5FFF7AEFF012070BD002070BDE0
:1003C000002002402DE9F05F90F82110002402295E
:1003D00003D004218163012485E001680A6822F0CA
:1003E0000E020A6001680A6822F001020A603F4EAC
:1003F0003E4FB215DFF8F4C0DFF8F090DFF8ECA064
:10040000DFF8E8B0DFF8E4E00168783F1301150297
:10041000ACF1640CA9F15009AAF13C0AABF1280B2C
:10042000AEF1140E4FF48018B14227D9B9420ED064
:10043000614512D049451DD0514518D0594518D0B5
:10044000714501D1424615E0294EB14201D1012248
:1004500010E0274E1436B14201D110220AE0244E9A
:100460002836B14206D0224A3C32914201D11A4686
:1004700000E02A461E49091F0A602BE0B94213D04A
:10048000614517D0494522D051451DD059451DD051
:10049000714501D142461AE0B14202D14FF080725B
:1004A00015E0134EB14201D1012210E0104E143676
:1004B000B14201D110220AE00D4E2836B14206D0D9
:1004C0000B4A3C32914201D11A4600E02A460749C4
:1004D00080394A60012180F82110002180F8201025
:1004E000416B01B188472046BDE8F09F8000024083
:1004F000080402402DE9F047054626480F4601262C
:10050000017E01290FD00121814601762868DFF89C
:1005100088804CF25034022808D0A2462046FFF7CB
:1005200027FFA8B131E00220BDE8F0872046FFF7A1
:100530001FFF08BB0120FFF7BBFE2046FFF718FF97
:10054000D8F81010064621F00401C8F810101CE07D
:100550004FF0FF303860AC6811E02046FFF7BAFE7C
:100560005046FFF705FFD8F81010060021F00201F1
:10057000C8F8101001D03C6007E004F50064D5E92C
:10058000020100EBC120A042E7D8002189F8181031
:100590003046C9E7D0040020002002407047000028
:1005A0002DE9F0413E4DE8683E4CC0064FF0FF3764
:1005B0004FF0000602D4E868400708D5D4F8088058
:1005C000A760FFF7A7FE404600F078F82670E868BD
:1005D000800653D52020E8602078F8B120780128E3
:1005E0001DD02078022833D06068401E60606068AB
:1005F000B0B3A068801CA060A06821696269090C82
:1006000041EA0241120C21616261296921F0010174
:1006100029612169626989B2FFF76EFE2EE0606888
:10062000401E6060606868B1A068FFF7B7FFA0680F
:1006300000F50060A060296921F002012961FFF73F
:1006400049FE1BE03846A7602670FFF7A7FF15E0BC
:10065000286920F0040028610020FFF79FFF0CE0CC
:10066000FFE72078032817D020780428A06815D049
:10067000B0F10600FFF792FFA760267020780028EF
:1006800008D1286920F007002861286920F4A050CB
:1006900028612676BDE8F081A068EBE7801EE9E7D7
:1006A00000200240D00400200348016941F080018D
:1006B00001610020704700000020024070470000E8
:1006C0002DE9F05F07461C4888460024017E154648
:1006D0001E46012909D00121814601764CF2503A8B
:1006E0005046FFF745FE18B122E00220BDE8F09F1A
:1006F000012F02D0022F00D00427D346DFF83CA000
:10070000220128463146FFF72FFD81B208EB440055
:10071000FFF7F2FD5846FFF72BFEDAF8102022F023
:100720000102CAF8102018B9641CE4B2BC42E7D335
:10073000002289F81820D9E7D004002000200240C8
:10074000064900200A69120607D5054A4A60054A8B
:100750004A600969090600D501207047002002405F
:1007600023016745AB89EFCD2DE9F84FDFF8B8A13C
:1007700000220AF1040B144601274FF00F090BF178
:10078000040E00BF0B6807FA04F52B40AB4274D18E
:10079000DFF898C14E68A6EB0C0866452BD00DDC3F
:1007A000032E34D005DC36B3012E19D0022E2FD102
:1007B0001BE0112E16D0122E2AD119E0B8F5881F91
:1007C00019D006DCB8F5803F15D0B8F5801F1FD1D1
:1007D00011E0B8F5001F0ED0B8F5041F18D10AE0DB
:1007E000CA6815E0CA68121D12E0CA6808320FE034
:1007F000CA680C320CE08A682AB1012A4FF008025C
:1008000003D0456104E0042202E0056100E000221B
:10081000FF2B01D8064601E000F104064FEA8405EB
:1008200001D9A5F12005D6F800C009FA05F82CEA8F
:10083000080C02FA05F54CEA050CC6F800C04D6834
:10084000ED006AD53A4DAE6946F00106AE61AD697C
:1008500024F0030605F001050095364D06EB050C66
:10086000DCF80850A6074FEA167809FA08F6B543EF
:10087000314EB04202D100261AE04EE02F4EB04277
:1008800001D1012614E02E4EB04201D102260FE024
:100890002C4EB04201D103260AE02B4EB04201D1CA
:1008A000042605E0294EB04201D1052600E00626C7
:1008B00006FA08F62E43CCF808604D68DAF80060B6
:1008C000ED03554601D51E4300E09E432E604D6862
:1008D000AD0305D5DBF800601E43CBF8006004E0F3
:1008E000DBF800509D43CBF800504D68DEF8006007
:1008F000ED02754601D51E4300E09E432E604D6813
:10090000AD0205D5084D0C352E681E432E6004E05F
:10091000054E0C3635689D433560641C102CFFF481
:1009200031AFBDE8F88F0000000401400000111055
:10093000001002400000014000080140000C01408E
:10094000001001400014014000180140001C01404B
:100950008068084000D001207047C2684A40C260E9
:1009600070470AB1016170470904FBE701488068DC
:10097000704700001C000020024881680278114482
:10098000816070471C000020074810B5016841F0E5
:1009900010010160032000F0A5F8002000F006F827
:1009A00000F024F8002010BD0020024070B50D4D6D
:1009B00004464FF47A712878B1FBF0F00A490968CF
:1009C000B1FBF0F000F035FB48B9102C07D2002243
:1009D0002146501E00F066F800206C6070BD0120BA
:1009E00070BD00001C00002028000020254808B52C
:1009F000816941F001018161816901F0010100918A
:100A0000C16941F08051C161C06900F0805000901F
:100A1000032000F067F8002211466FF00B0000F091
:100A200041F8002211466FF00A0000F03BF8002266
:100A300011466FF0090000F035F800221146501FF2
:100A400000F030F800221146101F00F02BF80022B1
:100A50001146901E00F026F800221146501E00F0AC
:100A600021F800221146042000F01CF8042000F0B8
:100A70000DF80548416821F0E06141F000714160E6
:100A800008BD0000001002400000014000F01F02FD
:100A9000012191404009800000F1E020C0F80011E0
:100AA00070470000F0B40E4B1B680C46C3F30223E2
:100AB000C3F10705042D00D90425191D072901D20A
:100AC000002300E0DB1E012606FA05F1491E214045
:100AD00099409E40761E16403143F0BC00F054BC55
:100AE0000CED00E0064900F0070208684FF6FF032E
:100AF000184040EA0220034A104308607047000093
:100B00000CED00E00000FA052DE9F047DFF83C812C
:100B100005460E46D8F8000000F00700B0420CD29F
:100B2000D8F8001021F007013143C8F80010D8F8B8
:100B3000000000F00700B04263D12878444C8007E1
:100B400005D56068A96820F0F00008436060287847
:100B5000C00745D06868012816D02168022816D041
:100B6000890700294DDA616821F0030101436160C2
:100B7000FFF7FCFE6968074641F2883001290FD073
:100B80000229814619D027E021688903E9E7890114
:100B9000E7E700BFFFF7EAFEC11B494501D918E0AE
:100BA00081466068C0F381000128F3D118E000BFDE
:100BB000FFF7DCFEC11B49450BD86068C0F381001C
:100BC0000228F5D10CE000BFFFF7D0FEC11B49455C
:100BD00002D90320BDE8F087606810F00C0FF3D154
:100BE000D8F80010404601F00701B1420BD9016866
:100BF00021F0070131430160006800F00700B042B6
:100C000001D00120E6E72878400705D56068E9684B
:100C100020F4E060084360602878000706D560682B
:100C2000296920F4605040EAC100606000F03CF89F
:100C30006168084AC1F30311515CC8400649086065
:100C40000020FFF7B3FE0020C4E7000000200240B0
:100C50000010024008190008280000200148006820
:100C600070470000280000200448054900684968D2
:100C7000044AC1F30221515CC8407047280000209B
:100C80000010024018190008044805490068496826
:100C9000044AC1F3C221515CC840704728000020BB
:100CA000001002401819000812A185B00FC98DE884
:100CB0000F0014A0144A006804905168134801F012
:100CC0000C03042B10D0082B0ED1C1F38343C903AE
:100CD0001DF803000AD5516804AAC1F34041515CD4
:100CE0000A4A5043B0FBF1F005B070470849484349
:100CF000FAE7000002030405060708090A0B0C0DB9
:100D00000E0F1010010200000010024000127A00C5
:100D100000093D002DE9F84F04460078B94DC007A1
:100D200048D06868C0F38100012807D06868C0F324
:100D30008100022809D16868C00306D528688003AD
:100D400038D5606800286FD034E06068B0F5803F27
:100D50000BD010B1B0F5A02F11D0286820F480304E
:100D60002860286820F4802002E0286840F4803061
:100D70002860606888B1FFF7F9FD064609E0286839
:100D800040F480202860F0E7FFF7F0FD801B642826
:100D900075D828688003F7D50CE0FFF7E7FD064615
:100DA00005E000BFFFF7E2FD801B6428F0D828684B
:100DB0008003F7D42078944E80074FF001094FF05C
:100DC00000083BD5686810F00C0F07D06868C0F3C6
:100DD0008100022809D16868C00306D4286880070A
:100DE00014D5206901281FD110E02069B0B1C6F8E0
:100DF0000090FFF7BBFD074605E000BFFFF7B6FD1B
:100E0000C01B0228C4D828688007F7D52868616904
:100E100020F0F80040EAC10028600FE0C6F800802A
:100E2000FFF7A4FD074606E0E9E000BFFFF79EFDDF
:100E3000C01B022823D828688007F7D42078000731
:100E40002CD57248A169D9B1C0F80090FFF78EFD8A
:100E5000074604E0FFF78AFDC01B02280FD8686A26
:100E60008007F7D56A484FF4FA510068B0FBF1F0FB
:100E7000009000BF0098411E0091FAD20EE080E081
:100E8000C0F80080FFF772FD074604E0FFF76EFD33
:100E9000C01B022875D8686A8007F7D420784007FD
:100EA00060D5E8690027C00008D4E86940F08050A8
:100EB000E861E869012700F080500090554801681A
:100EC000C90513D40168834641F480710160FFF7BE
:100ED0004DFD824606E000BFFFF748FDA0EB0A008B
:100EE00064284ED8DBF80000C005F5D5E06801287D
:100EF0000AD008B1052813D0286A20F00100286222
:100F0000286A20F0040002E0286A40F0010028620C
:100F1000E06841F2883B98B1FFF728FD82460BE07C
:100F2000286A40F004002862EEE700BFFFF71EFDCC
:100F3000A0EB0A0159455AD8286A8007F6D50CE07B
:100F4000FFF714FD824605E0FFF710FDA0EB0A0154
:100F500059454CD8286A8007F6D41FB1E86920F0BB
:100F60008050E861E06988B36968C1F381010229B2
:100F700045D00228C6F8608004D0FFF7F7FC04468D
:100F800038E034E0FFF7F2FC074604E0FFF7EEFC40
:100F9000C01B02282BD828688001F7D4206AB0F53E
:100FA000803F05D16868A16820F40030084368607C
:100FB000D4E908010843696821F4741108436860A2
:100FC000C6F86090FFF7D2FC044606E015E000BFCB
:100FD000FFF7CCFC001B022809D828688001F7D550
:100FE0000BE000BFFFF7C2FC001B022802D9032060
:100FF000BDE8F88F28688001F4D40020F8E70120CC
:10100000F6E7000000100240000042428004424225
:1010100028000020007000404FF0E02104280869FB
:1010200003D020F004000861704740F00400FAE7A4
:10103000704710B5401EB0F1807F01D3012010BD74
:101040004FF0E02460610F21601700F09DF900204F
:10105000A06107202061002010BD10B5FFF7E8FF58
:1010600010BD704770B5026804461068D1685369B6
:1010700010F00F0F50D003F0010501F490763543C6
:101080005DD0C20705D0CA0503D5E26B42F001026C
:10109000E263420705D5DA0703D0E26B42F00202B1
:1010A000E263820705D5DA0703D0E26B42F004025F
:1010B000E263020705D5DA0703D0E26B42F00802CB
:1010C000E263E26B002A33D0800604D5880602D59D
:1010D000204600F0EBF920684069E16BC0F3801016
:1010E000090700D428B3204600F0D2F920684169EE
:1010F00049061AD5416921F040014161606BA0B1F8
:101100001B494163606BFFF75DF9002810D0606BED
:10111000416BBDE870400847830610D58B060ED59D
:101120002046BDE8704000F0C1B92046FFF799FFA6
:1011300070BD2046FFF795FF0020E06370BD0306F9
:1011400006D50B0604D52046BDE8704000F0B2BAC3
:101150004006F3D54806F1D5D168204621F040017C
:10116000D160202184F8391000F079F870BD0000BA
:101170008114000870B5040004D094F839000025EB
:1011800010B106E0012070BD84F83850204600F010
:1011900023F8242084F839002068C16821F4005124
:1011A000C160204600F0CEF92068016921F4904129
:1011B00001612068416921F02A0141612068C1680C
:1011C00041F40051C160E563202084F8390084F8BF
:1011D0003A00002070BD0000F0B51C4F03680025E8
:1011E0001B49022003221B4C012685B0BB4211D1B2
:1011F0008B6943F480438B618969039201F48041D8
:1012000004910102CDE9001069462046FFF7ACFACF
:10121000201513E0104FBB4216D1CB6943F40033C5
:10122000CB61C969039201F4003104910421CDE935
:10123000001069462046FFF797FA08208DE8610004
:1012400069462046FFF790FA05B0F0BD003801402E
:101250000010024000080140004400407047704701
:10126000FEE700002DE9F04F414885B0816941F06B
:1012700004018161816901F004010491816941F0F7
:1012800010018161816901F010010491816941F0CF
:1012900008018161816901F008010491816941F0CF
:1012A000200181618069DFF8CC8000F020004FF4DC
:1012B00080570490002239464046FFF752FBDFF882
:1012C000B8904FF4C056002231464846FFF749FB1C
:1012D000DFF8A8A0002204215046FFF742FBDFF808
:1012E000A0B00022F8215846FFF73BFBF020002574
:1012F000CDE900050124694602944046FFF734FA1F
:101300004FF4F870CDE90005694602944846FFF7AE
:101310002BFA48F20300CDE90005694602945846CD
:10132000FFF722FACDE90074022569464046CDE96F
:101330000245FFF719FACDE9006469464846CDE950
:101340000245FFF711FA0420CDE900046946504632
:10135000CDE90245FFF708FAF820CDE90004694617
:101360005846CDE90245FFF7FFF905B0BDE8F08F1B
:10137000001002400008014000100140001401402C
:10138000000C0140FEE770470907090E002806DA45
:1013900000F00F0000F1E02080F8141D704700F10C
:1013A000E02080F8001470477047704770470000D5
:1013B000054810B50168491C0160FFF7DDFABDE87A
:1013C0001040FFF74ABE00000000002030B58FB08B
:1013D0000A20009001200225CDE906051021CDE963
:1013E000040100244FF46010CDE908406846FFF77F
:1013F00091FC00B1FEE70F20CDE90A054FF48060B3
:10140000CDE90C4002210AA80E94FFF77DFB00B144
:10141000FEE7FFF723FC4FF47A71B0FBF1F0FFF722
:1014200008FE0420FFF7F8FD00221146501EFFF7CA
:1014300039FB0FB030BD00000D48016841F00101DB
:10144000016041680B4A1140416001680A4A11403D
:101450000160016821F480210160416821F4FE01EE
:1014600041604FF41F0181600449C0030860704768
:10147000001002400000FFF8FFFFF6FE08ED00E05C
:1014800010B5406A0021C185C184FFF7EAFD10BD97
:101490000168CA6822F49072CA6001684A6922F041
:1014A00001024A61202180F83A10704710B590F887
:1014B0003A10222901D0022010BD8168B1F5805F69
:1014C00011D00169002901681FD0496801F07F032C
:1014D000816A4A1C82620B70C18D491E0904090C85
:1014E000C18518D02BE00269816A002A026852681F
:1014F00005D0D2B20A80816A491C8162ECE7C2F34E
:1015000008020A80816A891CF7E74A68816A4B1CD5
:1015100083620A70E0E70168CA6822F02002CA60AC
:101520000168CA6822F48072CA6001684A6922F0C0
:1015300001024A61202180F83A10FFF78FFE002057
:1015400010BD00002DE9F041044600680169E26821
:1015500021F44051114301612169A0680843616988
:1015600008432168CA6841F20C639A430243CA6087
:1015700020684169A26921F44071114341614C49DD
:1015800020686425322688423CD1FFF77DFB00EBC2
:10159000C00101EB001061688900B0FBF1F7FFF7B3
:1015A00073FB00EBC00101EB00106168B0468900DD
:1015B000B0FBF1F0B0FBF5F06FF01801484307EB1A
:1015C000800106EB0110B0FBF5F000F0F006FFF72C
:1015D0005BFB00EBC00101EB001061688900B0FB10
:1015E000F1F0B0FBF5F006EB0016FFF74DFB00EB5A
:1015F000C00101EB001061688900B0FBF1F7FFF753
:1016000043FB3BE0FFF730FB00EBC00101EB0010B8
:1016100061688900B0FBF1F7FFF726FB00EBC00122
:1016200001EB00106168B0468900B0FBF1F0B0FB3F
:10163000F5F06FF01801484307EB800106EB01104D
:10164000B0FBF5F000F0F006FFF70EFB00EBC00179
:1016500001EB001061688900B0FBF1F0B0FBF5F020
:1016600006EB0016FFF700FB00EBC00101EB0010DA
:1016700061688900B0FBF1F7FFF7F6FA00EBC001F3
:1016800001EB001061688900B0FBF1F0B0FBF5F0F0
:101690006FF01801484307EB800108EB0110B0FB25
:1016A000F5F0216800F00F0030448860BDE8F0815B
:1016B0000038014090F83910212901D002207047EC
:1016C0008168B1F5805F016A0BD04A1C0262026832
:1016D00009785160C18C491E0904090CC1840ED0DF
:1016E00017E009880268C1F3080151600169002907
:1016F000016A02D0491C0162ECE7891CFBE7016822
:10170000CA6822F08002CA600068C16841F04001E6
:10171000C1600020704700000148FFF7A3BC000033
:101720002C0000200148FFF79DBC00006C00002049
:10173000FEE702E008C8121F08C1002AFAD170476C
:101740007047002001E001C1121F002AFBD1704741
:10175000034A1168084411688842FCD870470000A9
:1017600000000020FFF710F9FFF730FEFFF77AFDC9
:101770005D485C494FF4E13500240160C0E9015443
:101780000C26C460C0E904468461C461FFF7F2FC22
:1017900000B1FEE75448554940300160C0E90154AA
:1017A000C460C0E904468461C461FFF7E3FC00B192
:1017B000FEE7002211462620FFF774F92620FFF7E6
:1017C00065F9002211462520FFF76CF92520FFF767
:1017D0005DF9002211460520FFF764F90520FFF7A7
:1017E00055F9FEF7F7FCDFF808A1424CDFF8088155
:1017F000DFF80891424E4FF480574FF4004B3946C2
:1018000055465046FFF7A9F810212846FFF7A0F8E3
:10181000208020212846FFF79BF860804021284641
:10182000FFF796F8A08080212846FFF791F8E08026
:1018300010214046FFF78CF8208120214046FFF719
:1018400087F8608101213046FFF782F8A0810221EC
:101850003046FFF77DF8E08159463046FFF778F8CB
:10186000208240214046FFF773F860828021404685
:10187000FFF76EF8A0824FF480714046FFF768F8DA
:10188000E0824D4699F8012040213046FFF769F883
:10189000AA7820213046FFF764F8EA781021304614
:1018A000FFF75FF82A7908213046FFF75AF86A797E
:1018B00004211448FFF755F8AA7939464046FFF746
:1018C00050F8EA794FF400614046FFF74AF8E08AA1
:1018D00018B180213046FFF740F84FF4FA70FFF757
:1018E00037FF8CE7003801402C0000200044004006
:1018F00000080140B8000020001001401400002042
:10190000000C014000140140000000000000000035
:101910000102030406070809000000000102030495
:1019200040190008000000202C00000032170008B9
:101930006C1900082C000020C408000042170008A1
:1019400000000000000000005F55000000000000E3
:101950000000AAAA00000000000000000100000032
:0C196000100000000000000000A24A047B
:0400000508000131BD
:00000001FF
